:100000000C9446000C9450000C9450000C9450003A
:100010000C9450000C9450000C9450000C94500020
:100020000C9450000C9450000C9450000C94500010
:100030000C9450000C9450000C9450000C94500000
:100040000C9450000C9450000C9450000C945000F0
:100050000C9450000C9450000C9450000C945000E0
:100060000C9450000C9450000C9450000C945000D0
:100070000C9450000C9450000C9450000C945000C0
:100080000C9450000C9450000C94500011241FBE8E
:10009000CFEFD0E1DEBFCDBF0E9452000C948200B2
:1000A0000C940000139A80918B00826880938B00DF
:1000B00080918A008B6180938A0087E893E1909316
:1000C0008100809380002DE730E08CE692E0309351
:1000D0008700209386004FEF53ED60E3415050407E
:1000E0006040E1F700C00000909387008093860095
:1000F0004FEF53ED60E3415050406040E1F700C0E6
:080100000000E5CFF894FFCFE9
:00000001FF
